{
	"contracts/4_HelloPayable.sol": {
		"HelloPayable": {
			"abi": [
				{
					"stateMutability": "payable",
					"type": "fallback"
				},
				{
					"inputs": [],
					"name": "deposit",
					"outputs": [],
					"stateMutability": "payable",
					"type": "function"
				},
				{
					"inputs": [],
					"name": "getxy",
					"outputs": [
						{
							"internalType": "uint256",
							"name": "",
							"type": "uint256"
						},
						{
							"internalType": "uint256",
							"name": "",
							"type": "uint256"
						}
					],
					"stateMutability": "view",
					"type": "function"
				},
				{
					"stateMutability": "payable",
					"type": "receive"
				}
			],
			"devdoc": {
				"kind": "dev",
				"methods": {},
				"version": 1
			},
			"evm": {
				"assembly": "    /* \"contracts/4_HelloPayable.sol\":74:570  contract HelloPayable {... */\n  mstore(0x40, 0x80)\n  callvalue\n  dup1\n  iszero\n  tag_1\n  jumpi\n  0x00\n  dup1\n  revert\ntag_1:\n  pop\n  dataSize(sub_0)\n  dup1\n  dataOffset(sub_0)\n  0x00\n  codecopy\n  0x00\n  return\nstop\n\nsub_0: assembly {\n        /* \"contracts/4_HelloPayable.sol\":74:570  contract HelloPayable {... */\n      mstore(0x40, 0x80)\n      jumpi(tag_1, lt(calldatasize, 0x04))\n      shr(0xe0, calldataload(0x00))\n      dup1\n      0xc08438cf\n      eq\n      tag_3\n      jumpi\n      dup1\n      0xd0e30db0\n      eq\n      tag_4\n      jumpi\n      jump(tag_2)\n    tag_1:\n      jumpi(tag_2, calldatasize)\n        /* \"contracts/4_HelloPayable.sol\":218:219  1 */\n      0x01\n        /* \"contracts/4_HelloPayable.sol\":214:215  x */\n      0x00\n        /* \"contracts/4_HelloPayable.sol\":214:219  x = 1 */\n      dup2\n      swap1\n      sstore\n      pop\n        /* \"contracts/4_HelloPayable.sol\":234:243  msg.value */\n      callvalue\n        /* \"contracts/4_HelloPayable.sol\":230:231  y */\n      0x01\n        /* \"contracts/4_HelloPayable.sol\":230:243  y = msg.value */\n      dup2\n      swap1\n      sstore\n      stop\n        /* \"contracts/4_HelloPayable.sol\":74:570  contract HelloPayable {... */\n    tag_2:\n        /* \"contracts/4_HelloPayable.sol\":354:355  2 */\n      0x02\n        /* \"contracts/4_HelloPayable.sol\":350:351  x */\n      0x00\n        /* \"contracts/4_HelloPayable.sol\":350:355  x = 2 */\n      dup2\n      swap1\n      sstore\n      pop\n        /* \"contracts/4_HelloPayable.sol\":370:379  msg.value */\n      callvalue\n        /* \"contracts/4_HelloPayable.sol\":366:367  y */\n      0x01\n        /* \"contracts/4_HelloPayable.sol\":366:379  y = msg.value */\n      dup2\n      swap1\n      sstore\n      stop\n        /* \"contracts/4_HelloPayable.sol\":485:567  function getxy() public view returns (uint, uint) {... */\n    tag_3:\n      callvalue\n      dup1\n      iszero\n      tag_9\n      jumpi\n      0x00\n      dup1\n      revert\n    tag_9:\n      pop\n      tag_10\n      tag_11\n      jump\t// in\n    tag_10:\n      mload(0x40)\n      tag_12\n      swap3\n      swap2\n      swap1\n      tag_13\n      jump\t// in\n    tag_12:\n      mload(0x40)\n      dup1\n      swap2\n      sub\n      swap1\n      return\n        /* \"contracts/4_HelloPayable.sol\":395:477  function deposit() public payable {... */\n    tag_4:\n      tag_14\n      tag_15\n      jump\t// in\n    tag_14:\n      stop\n        /* \"contracts/4_HelloPayable.sol\":485:567  function getxy() public view returns (uint, uint) {... */\n    tag_11:\n        /* \"contracts/4_HelloPayable.sol\":523:527  uint */\n      0x00\n        /* \"contracts/4_HelloPayable.sol\":529:533  uint */\n      dup1\n        /* \"contracts/4_HelloPayable.sol\":554:555  x */\n      sload(0x00)\n        /* \"contracts/4_HelloPayable.sol\":557:558  y */\n      sload(0x01)\n        /* \"contracts/4_HelloPayable.sol\":546:559  return (x, y) */\n      swap2\n      pop\n      swap2\n      pop\n        /* \"contracts/4_HelloPayable.sol\":485:567  function getxy() public view returns (uint, uint) {... */\n      swap1\n      swap2\n      jump\t// out\n        /* \"contracts/4_HelloPayable.sol\":395:477  function deposit() public payable {... */\n    tag_15:\n        /* \"contracts/4_HelloPayable.sol\":444:445  3 */\n      0x03\n        /* \"contracts/4_HelloPayable.sol\":440:441  x */\n      0x00\n        /* \"contracts/4_HelloPayable.sol\":440:445  x = 3 */\n      dup2\n      swap1\n      sstore\n      pop\n        /* \"contracts/4_HelloPayable.sol\":460:469  msg.value */\n      callvalue\n        /* \"contracts/4_HelloPayable.sol\":456:457  y */\n      0x01\n        /* \"contracts/4_HelloPayable.sol\":456:469  y = msg.value */\n      dup2\n      swap1\n      sstore\n      pop\n        /* \"contracts/4_HelloPayable.sol\":395:477  function deposit() public payable {... */\n      jump\t// out\n        /* \"#utility.yul\":7:84   */\n    tag_18:\n        /* \"#utility.yul\":44:51   */\n      0x00\n        /* \"#utility.yul\":73:78   */\n      dup2\n        /* \"#utility.yul\":62:78   */\n      swap1\n      pop\n        /* \"#utility.yul\":7:84   */\n      swap2\n      swap1\n      pop\n      jump\t// out\n        /* \"#utility.yul\":90:208   */\n    tag_19:\n        /* \"#utility.yul\":177:201   */\n      tag_23\n        /* \"#utility.yul\":195:200   */\n      dup2\n        /* \"#utility.yul\":177:201   */\n      tag_18\n      jump\t// in\n    tag_23:\n        /* \"#utility.yul\":172:175   */\n      dup3\n        /* \"#utility.yul\":165:202   */\n      mstore\n        /* \"#utility.yul\":90:208   */\n      pop\n      pop\n      jump\t// out\n        /* \"#utility.yul\":214:546   */\n    tag_13:\n        /* \"#utility.yul\":335:339   */\n      0x00\n        /* \"#utility.yul\":373:375   */\n      0x40\n        /* \"#utility.yul\":362:371   */\n      dup3\n        /* \"#utility.yul\":358:376   */\n      add\n        /* \"#utility.yul\":350:376   */\n      swap1\n      pop\n        /* \"#utility.yul\":386:457   */\n      tag_25\n        /* \"#utility.yul\":454:455   */\n      0x00\n        /* \"#utility.yul\":443:452   */\n      dup4\n        /* \"#utility.yul\":439:456   */\n      add\n        /* \"#utility.yul\":430:436   */\n      dup6\n        /* \"#utility.yul\":386:457   */\n      tag_19\n      jump\t// in\n    tag_25:\n        /* \"#utility.yul\":467:539   */\n      tag_26\n        /* \"#utility.yul\":535:537   */\n      0x20\n        /* \"#utility.yul\":524:533   */\n      dup4\n        /* \"#utility.yul\":520:538   */\n      add\n        /* \"#utility.yul\":511:517   */\n      dup5\n        /* \"#utility.yul\":467:539   */\n      tag_19\n      jump\t// in\n    tag_26:\n        /* \"#utility.yul\":214:546   */\n      swap4\n      swap3\n      pop\n      pop\n      pop\n      jump\t// out\n\n    auxdata: 0xa2646970667358221220e0263966b7e5f37d9213f02d8acb2d099715f2da6ea115d43bbc711d526b1ccd64736f6c634300081a0033\n}\n",
				"bytecode": {
					"linkReferences": {},
					"object": "6080604052348015600e575f80fd5b506101068061001c5f395ff3fe6080604052600436106028575f3560e01c8063c08438cf14604a578063d0e30db014607057603b565b36603b5760015f81905550346001819055005b60025f81905550346001819055005b3480156054575f80fd5b50605b6078565b604051606792919060ad565b60405180910390f35b60766087565b005b5f805f54600154915091509091565b60035f8190555034600181905550565b5f819050919050565b60a7816097565b82525050565b5f60408201905060be5f83018560a0565b60c9602083018460a0565b939250505056fea2646970667358221220e0263966b7e5f37d9213f02d8acb2d099715f2da6ea115d43bbc711d526b1ccd64736f6c634300081a0033",
					"opcodes": "PUSH1 0x80 PUSH1 0x40 MSTORE CALLVALUE DUP1 ISZERO PUSH1 0xE JUMPI PUSH0 DUP1 REVERT JUMPDEST POP PUSH2 0x106 DUP1 PUSH2 0x1C PUSH0 CODECOPY PUSH0 RETURN INVALID PUSH1 0x80 PUSH1 0x40 MSTORE PUSH1 0x4 CALLDATASIZE LT PUSH1 0x28 JUMPI PUSH0 CALLDATALOAD PUSH1 0xE0 SHR DUP1 PUSH4 0xC08438CF EQ PUSH1 0x4A JUMPI DUP1 PUSH4 0xD0E30DB0 EQ PUSH1 0x70 JUMPI PUSH1 0x3B JUMP JUMPDEST CALLDATASIZE PUSH1 0x3B JUMPI PUSH1 0x1 PUSH0 DUP2 SWAP1 SSTORE POP CALLVALUE PUSH1 0x1 DUP2 SWAP1 SSTORE STOP JUMPDEST PUSH1 0x2 PUSH0 DUP2 SWAP1 SSTORE POP CALLVALUE PUSH1 0x1 DUP2 SWAP1 SSTORE STOP JUMPDEST CALLVALUE DUP1 ISZERO PUSH1 0x54 JUMPI PUSH0 DUP1 REVERT JUMPDEST POP PUSH1 0x5B PUSH1 0x78 JUMP JUMPDEST PUSH1 0x40 MLOAD PUSH1 0x67 SWAP3 SWAP2 SWAP1 PUSH1 0xAD JUMP JUMPDEST PUSH1 0x40 MLOAD DUP1 SWAP2 SUB SWAP1 RETURN JUMPDEST PUSH1 0x76 PUSH1 0x87 JUMP JUMPDEST STOP JUMPDEST PUSH0 DUP1 PUSH0 SLOAD PUSH1 0x1 SLOAD SWAP2 POP SWAP2 POP SWAP1 SWAP2 JUMP JUMPDEST PUSH1 0x3 PUSH0 DUP2 SWAP1 SSTORE POP CALLVALUE PUSH1 0x1 DUP2 SWAP1 SSTORE POP JUMP JUMPDEST PUSH0 DUP2 SWAP1 POP SWAP2 SWAP1 POP JUMP JUMPDEST PUSH1 0xA7 DUP2 PUSH1 0x97 JUMP JUMPDEST DUP3 MSTORE POP POP JUMP JUMPDEST PUSH0 PUSH1 0x40 DUP3 ADD SWAP1 POP PUSH1 0xBE PUSH0 DUP4 ADD DUP6 PUSH1 0xA0 JUMP JUMPDEST PUSH1 0xC9 PUSH1 0x20 DUP4 ADD DUP5 PUSH1 0xA0 JUMP JUMPDEST SWAP4 SWAP3 POP POP POP JUMP INVALID LOG2 PUSH5 0x6970667358 0x22 SLT KECCAK256 0xE0 0x26 CODECOPY PUSH7 0xB7E5F37D9213F0 0x2D DUP11 0xCB 0x2D MULMOD SWAP8 ISZERO CALLCODE 0xDA PUSH15 0xA115D43BBC711D526B1CCD64736F6C PUSH4 0x4300081A STOP CALLER "
				},
				"gasEstimates": {
					"creation": {
						"codeDepositCost": "52400",
						"executionCost": "103",
						"totalCost": "52503"
					},
					"external": {
						"": "44330",
						"deposit()": "44345",
						"getxy()": "infinite"
					}
				},
				"methodIdentifiers": {
					"deposit()": "d0e30db0",
					"getxy()": "c08438cf"
				}
			},
			"storageLayout": {
				"storage": [
					{
						"astId": 3,
						"contract": "contracts/4_HelloPayable.sol:HelloPayable",
						"label": "x",
						"offset": 0,
						"slot": "0",
						"type": "t_uint256"
					},
					{
						"astId": 5,
						"contract": "contracts/4_HelloPayable.sol:HelloPayable",
						"label": "y",
						"offset": 0,
						"slot": "1",
						"type": "t_uint256"
					}
				],
				"types": {
					"t_uint256": {
						"encoding": "inplace",
						"label": "uint256",
						"numberOfBytes": "32"
					}
				}
			},
			"userdoc": {
				"kind": "user",
				"methods": {},
				"version": 1
			}
		}
	}
}