{
	"contracts/8_HelloAbstractContact.sol": {
		"BaseA": {
			"abi": [
				{
					"inputs": [],
					"name": "a",
					"outputs": [
						{
							"internalType": "uint256",
							"name": "",
							"type": "uint256"
						}
					],
					"stateMutability": "view",
					"type": "function"
				},
				{
					"inputs": [],
					"name": "get",
					"outputs": [],
					"stateMutability": "pure",
					"type": "function"
				},
				{
					"inputs": [],
					"name": "set",
					"outputs": [],
					"stateMutability": "pure",
					"type": "function"
				}
			],
			"devdoc": {
				"kind": "dev",
				"methods": {},
				"version": 1
			},
			"evm": {
				"assembly": "    /* \"contracts/8_HelloAbstractContact.sol\":538:830  contract BaseA is BaseABS {... */\n  mstore(0x40, 0x80)\n  callvalue\n  dup1\n  iszero\n  tag_1\n  jumpi\n  0x00\n  dup1\n  revert\ntag_1:\n  pop\n  dataSize(sub_0)\n  dup1\n  dataOffset(sub_0)\n  0x00\n  codecopy\n  0x00\n  return\nstop\n\nsub_0: assembly {\n        /* \"contracts/8_HelloAbstractContact.sol\":538:830  contract BaseA is BaseABS {... */\n      mstore(0x40, 0x80)\n      callvalue\n      dup1\n      iszero\n      tag_1\n      jumpi\n      0x00\n      dup1\n      revert\n    tag_1:\n      pop\n      jumpi(tag_2, lt(calldatasize, 0x04))\n      shr(0xe0, calldataload(0x00))\n      dup1\n      0x0dbe671f\n      eq\n      tag_3\n      jumpi\n      dup1\n      0x6d4ce63c\n      eq\n      tag_4\n      jumpi\n      dup1\n      0xb8e010de\n      eq\n      tag_5\n      jumpi\n    tag_2:\n      0x00\n      dup1\n      revert\n        /* \"contracts/8_HelloAbstractContact.sol\":269:282  uint public a */\n    tag_3:\n      tag_6\n      tag_7\n      jump\t// in\n    tag_6:\n      mload(0x40)\n      tag_8\n      swap2\n      swap1\n      tag_9\n      jump\t// in\n    tag_8:\n      mload(0x40)\n      dup1\n      swap2\n      sub\n      swap1\n      return\n        /* \"contracts/8_HelloAbstractContact.sol\":628:724  function get() override public     pure {... */\n    tag_4:\n      tag_10\n      tag_11\n      jump\t// in\n    tag_10:\n      stop\n        /* \"contracts/8_HelloAbstractContact.sol\":732:827  function set()  override public pure   {... */\n    tag_5:\n      tag_12\n      tag_13\n      jump\t// in\n    tag_12:\n      stop\n        /* \"contracts/8_HelloAbstractContact.sol\":269:282  uint public a */\n    tag_7:\n      sload(0x00)\n      dup2\n      jump\t// out\n        /* \"contracts/8_HelloAbstractContact.sol\":628:724  function get() override public     pure {... */\n    tag_11:\n        /* \"contracts/8_HelloAbstractContact.sol\":679:716  console.log(\"implement get function\") */\n      tag_15\n      mload(0x40)\n      dup1\n      0x40\n      add\n      0x40\n      mstore\n      dup1\n      0x16\n      dup2\n      mstore\n      0x20\n      add\n      0x696d706c656d656e74206765742066756e6374696f6e00000000000000000000\n      dup2\n      mstore\n      pop\n        /* \"contracts/8_HelloAbstractContact.sol\":679:690  console.log */\n      tag_16\n        /* \"contracts/8_HelloAbstractContact.sol\":679:716  console.log(\"implement get function\") */\n      jump\t// in\n    tag_15:\n        /* \"contracts/8_HelloAbstractContact.sol\":628:724  function get() override public     pure {... */\n      jump\t// out\n        /* \"contracts/8_HelloAbstractContact.sol\":732:827  function set()  override public pure   {... */\n    tag_13:\n        /* \"contracts/8_HelloAbstractContact.sol\":782:819  console.log(\"implement set function\") */\n      tag_18\n      mload(0x40)\n      dup1\n      0x40\n      add\n      0x40\n      mstore\n      dup1\n      0x16\n      dup2\n      mstore\n      0x20\n      add\n      0x696d706c656d656e74207365742066756e6374696f6e00000000000000000000\n      dup2\n      mstore\n      pop\n        /* \"contracts/8_HelloAbstractContact.sol\":782:793  console.log */\n      tag_16\n        /* \"contracts/8_HelloAbstractContact.sol\":782:819  console.log(\"implement set function\") */\n      jump\t// in\n    tag_18:\n        /* \"contracts/8_HelloAbstractContact.sol\":732:827  function set()  override public pure   {... */\n      jump\t// out\n        /* \"hardhat/console.sol\":6071:6192  function log(string memory p0) internal pure {... */\n    tag_16:\n        /* \"hardhat/console.sol\":6126:6185  _sendLogPayload(abi.encodeWithSignature(\"log(string)\", p0)) */\n      tag_20\n        /* \"hardhat/console.sol\":6181:6183  p0 */\n      dup2\n        /* \"hardhat/console.sol\":6142:6184  abi.encodeWithSignature(\"log(string)\", p0) */\n      add(0x24, mload(0x40))\n      tag_21\n      swap2\n      swap1\n      tag_22\n      jump\t// in\n    tag_21:\n      mload(0x40)\n      0x20\n      dup2\n      dup4\n      sub\n      sub\n      dup2\n      mstore\n      swap1\n      0x40\n      mstore\n      and(not(0xffffffffffffffffffffffffffffffffffffffffffffffffffffffff), 0x41304fac00000000000000000000000000000000000000000000000000000000)\n      0x20\n      dup3\n      add\n      dup1\n      mload\n      0xffffffffffffffffffffffffffffffffffffffffffffffffffffffff\n      dup4\n      dup2\n      dup4\n      and\n      or\n      dup4\n      mstore\n      pop\n      pop\n      pop\n      pop\n        /* \"hardhat/console.sol\":6126:6141  _sendLogPayload */\n      tag_23\n        /* \"hardhat/console.sol\":6126:6185  _sendLogPayload(abi.encodeWithSignature(\"log(string)\", p0)) */\n      jump\t// in\n    tag_20:\n        /* \"hardhat/console.sol\":6071:6192  function log(string memory p0) internal pure {... */\n      pop\n      jump\t// out\n        /* \"hardhat/console.sol\":851:980  function _sendLogPayload(bytes memory payload) internal pure {... */\n    tag_23:\n        /* \"hardhat/console.sol\":922:973  _castToPure(_sendLogPayloadImplementation)(payload) */\n      tag_25\n        /* \"hardhat/console.sol\":965:972  payload */\n      dup2\n        /* \"hardhat/console.sol\":922:964  _castToPure(_sendLogPayloadImplementation) */\n      tag_26\n        /* \"hardhat/console.sol\":934:963  _sendLogPayloadImplementation */\n      tag_27\n        /* \"hardhat/console.sol\":922:933  _castToPure */\n      tag_28\n        /* \"hardhat/console.sol\":922:964  _castToPure(_sendLogPayloadImplementation) */\n      jump\t// in\n    tag_26:\n        /* \"hardhat/console.sol\":922:973  _castToPure(_sendLogPayloadImplementation)(payload) */\n      0xffffffff\n      and\n      jump\t// in\n    tag_25:\n        /* \"hardhat/console.sol\":851:980  function _sendLogPayload(bytes memory payload) internal pure {... */\n      pop\n      jump\t// out\n        /* \"hardhat/console.sol\":180:643  function _sendLogPayloadImplementation(bytes memory payload) internal view {... */\n    tag_27:\n        /* \"hardhat/console.sol\":265:287  address consoleAddress */\n      0x00\n        /* \"hardhat/console.sol\":131:173  0x000000000000000000636F6e736F6c652e6c6f67 */\n      0x636f6e736f6c652e6c6f67\n        /* \"hardhat/console.sol\":265:305  address consoleAddress = CONSOLE_ADDRESS */\n      swap1\n      pop\n        /* \"hardhat/console.sol\":594:595  0 */\n      0x00\n        /* \"hardhat/console.sol\":571:572  0 */\n      dup1\n        /* \"hardhat/console.sol\":541:548  payload */\n      dup4\n        /* \"hardhat/console.sol\":535:549  mload(payload) */\n      mload\n        /* \"hardhat/console.sol\":510:512  32 */\n      0x20\n        /* \"hardhat/console.sol\":501:508  payload */\n      dup6\n        /* \"hardhat/console.sol\":497:513  add(payload, 32) */\n      add\n        /* \"hardhat/console.sol\":461:475  consoleAddress */\n      dup5\n        /* \"hardhat/console.sol\":434:439  gas() */\n      gas\n        /* \"hardhat/console.sol\":402:613  staticcall(... */\n      staticcall\n        /* \"hardhat/console.sol\":381:627  pop(... */\n      pop\n        /* \"hardhat/console.sol\":367:637  {... */\n      pop\n        /* \"hardhat/console.sol\":180:643  function _sendLogPayloadImplementation(bytes memory payload) internal view {... */\n      pop\n      jump\t// out\n        /* \"hardhat/console.sol\":649:845  function _castToPure(... */\n    tag_28:\n        /* \"hardhat/console.sol\":748:781  function(bytes memory) pure fnOut */\n      tag_30\n        /* \"hardhat/console.sol\":825:829  fnIn */\n      dup2\n        /* \"hardhat/console.sol\":816:829  fnOut := fnIn */\n      swap1\n      pop\n        /* \"hardhat/console.sol\":649:845  function _castToPure(... */\n      swap2\n      swap1\n      pop\n      jump\t// out\n    tag_30:\n      tag_32\n      tag_33\n      jump\t// in\n    tag_32:\n      jump\t// out\n        /* \"#utility.yul\":7:84   */\n    tag_34:\n        /* \"#utility.yul\":44:51   */\n      0x00\n        /* \"#utility.yul\":73:78   */\n      dup2\n        /* \"#utility.yul\":62:78   */\n      swap1\n      pop\n        /* \"#utility.yul\":7:84   */\n      swap2\n      swap1\n      pop\n      jump\t// out\n        /* \"#utility.yul\":90:208   */\n    tag_35:\n        /* \"#utility.yul\":177:201   */\n      tag_44\n        /* \"#utility.yul\":195:200   */\n      dup2\n        /* \"#utility.yul\":177:201   */\n      tag_34\n      jump\t// in\n    tag_44:\n        /* \"#utility.yul\":172:175   */\n      dup3\n        /* \"#utility.yul\":165:202   */\n      mstore\n        /* \"#utility.yul\":90:208   */\n      pop\n      pop\n      jump\t// out\n        /* \"#utility.yul\":214:436   */\n    tag_9:\n        /* \"#utility.yul\":307:311   */\n      0x00\n        /* \"#utility.yul\":345:347   */\n      0x20\n        /* \"#utility.yul\":334:343   */\n      dup3\n        /* \"#utility.yul\":330:348   */\n      add\n        /* \"#utility.yul\":322:348   */\n      swap1\n      pop\n        /* \"#utility.yul\":358:429   */\n      tag_46\n        /* \"#utility.yul\":426:427   */\n      0x00\n        /* \"#utility.yul\":415:424   */\n      dup4\n        /* \"#utility.yul\":411:428   */\n      add\n        /* \"#utility.yul\":402:408   */\n      dup5\n        /* \"#utility.yul\":358:429   */\n      tag_35\n      jump\t// in\n    tag_46:\n        /* \"#utility.yul\":214:436   */\n      swap3\n      swap2\n      pop\n      pop\n      jump\t// out\n        /* \"#utility.yul\":442:541   */\n    tag_36:\n        /* \"#utility.yul\":494:500   */\n      0x00\n        /* \"#utility.yul\":528:533   */\n      dup2\n        /* \"#utility.yul\":522:534   */\n      mload\n        /* \"#utility.yul\":512:534   */\n      swap1\n      pop\n        /* \"#utility.yul\":442:541   */\n      swap2\n      swap1\n      pop\n      jump\t// out\n        /* \"#utility.yul\":547:716   */\n    tag_37:\n        /* \"#utility.yul\":631:642   */\n      0x00\n        /* \"#utility.yul\":665:671   */\n      dup3\n        /* \"#utility.yul\":660:663   */\n      dup3\n        /* \"#utility.yul\":653:672   */\n      mstore\n        /* \"#utility.yul\":705:709   */\n      0x20\n        /* \"#utility.yul\":700:703   */\n      dup3\n        /* \"#utility.yul\":696:710   */\n      add\n        /* \"#utility.yul\":681:710   */\n      swap1\n      pop\n        /* \"#utility.yul\":547:716   */\n      swap3\n      swap2\n      pop\n      pop\n      jump\t// out\n        /* \"#utility.yul\":722:861   */\n    tag_38:\n        /* \"#utility.yul\":811:817   */\n      dup3\n        /* \"#utility.yul\":806:809   */\n      dup2\n        /* \"#utility.yul\":801:804   */\n      dup4\n        /* \"#utility.yul\":795:818   */\n      mcopy\n        /* \"#utility.yul\":852:853   */\n      0x00\n        /* \"#utility.yul\":843:849   */\n      dup4\n        /* \"#utility.yul\":838:841   */\n      dup4\n        /* \"#utility.yul\":834:850   */\n      add\n        /* \"#utility.yul\":827:854   */\n      mstore\n        /* \"#utility.yul\":722:861   */\n      pop\n      pop\n      pop\n      jump\t// out\n        /* \"#utility.yul\":867:969   */\n    tag_39:\n        /* \"#utility.yul\":908:914   */\n      0x00\n        /* \"#utility.yul\":959:961   */\n      0x1f\n        /* \"#utility.yul\":955:962   */\n      not\n        /* \"#utility.yul\":950:952   */\n      0x1f\n        /* \"#utility.yul\":943:948   */\n      dup4\n        /* \"#utility.yul\":939:953   */\n      add\n        /* \"#utility.yul\":935:963   */\n      and\n        /* \"#utility.yul\":925:963   */\n      swap1\n      pop\n        /* \"#utility.yul\":867:969   */\n      swap2\n      swap1\n      pop\n      jump\t// out\n        /* \"#utility.yul\":975:1352   */\n    tag_40:\n        /* \"#utility.yul\":1063:1066   */\n      0x00\n        /* \"#utility.yul\":1091:1130   */\n      tag_52\n        /* \"#utility.yul\":1124:1129   */\n      dup3\n        /* \"#utility.yul\":1091:1130   */\n      tag_36\n      jump\t// in\n    tag_52:\n        /* \"#utility.yul\":1146:1217   */\n      tag_53\n        /* \"#utility.yul\":1210:1216   */\n      dup2\n        /* \"#utility.yul\":1205:1208   */\n      dup6\n        /* \"#utility.yul\":1146:1217   */\n      tag_37\n      jump\t// in\n    tag_53:\n        /* \"#utility.yul\":1139:1217   */\n      swap4\n      pop\n        /* \"#utility.yul\":1226:1291   */\n      tag_54\n        /* \"#utility.yul\":1284:1290   */\n      dup2\n        /* \"#utility.yul\":1279:1282   */\n      dup6\n        /* \"#utility.yul\":1272:1276   */\n      0x20\n        /* \"#utility.yul\":1265:1270   */\n      dup7\n        /* \"#utility.yul\":1261:1277   */\n      add\n        /* \"#utility.yul\":1226:1291   */\n      tag_38\n      jump\t// in\n    tag_54:\n        /* \"#utility.yul\":1316:1345   */\n      tag_55\n        /* \"#utility.yul\":1338:1344   */\n      dup2\n        /* \"#utility.yul\":1316:1345   */\n      tag_39\n      jump\t// in\n    tag_55:\n        /* \"#utility.yul\":1311:1314   */\n      dup5\n        /* \"#utility.yul\":1307:1346   */\n      add\n        /* \"#utility.yul\":1300:1346   */\n      swap2\n      pop\n        /* \"#utility.yul\":1067:1352   */\n      pop\n        /* \"#utility.yul\":975:1352   */\n      swap3\n      swap2\n      pop\n      pop\n      jump\t// out\n        /* \"#utility.yul\":1358:1671   */\n    tag_22:\n        /* \"#utility.yul\":1471:1475   */\n      0x00\n        /* \"#utility.yul\":1509:1511   */\n      0x20\n        /* \"#utility.yul\":1498:1507   */\n      dup3\n        /* \"#utility.yul\":1494:1512   */\n      add\n        /* \"#utility.yul\":1486:1512   */\n      swap1\n      pop\n        /* \"#utility.yul\":1558:1567   */\n      dup2\n        /* \"#utility.yul\":1552:1556   */\n      dup2\n        /* \"#utility.yul\":1548:1568   */\n      sub\n        /* \"#utility.yul\":1544:1545   */\n      0x00\n        /* \"#utility.yul\":1533:1542   */\n      dup4\n        /* \"#utility.yul\":1529:1546   */\n      add\n        /* \"#utility.yul\":1522:1569   */\n      mstore\n        /* \"#utility.yul\":1586:1664   */\n      tag_57\n        /* \"#utility.yul\":1659:1663   */\n      dup2\n        /* \"#utility.yul\":1650:1656   */\n      dup5\n        /* \"#utility.yul\":1586:1664   */\n      tag_40\n      jump\t// in\n    tag_57:\n        /* \"#utility.yul\":1578:1664   */\n      swap1\n      pop\n        /* \"#utility.yul\":1358:1671   */\n      swap3\n      swap2\n      pop\n      pop\n      jump\t// out\n        /* \"#utility.yul\":1677:1857   */\n    tag_33:\n        /* \"#utility.yul\":1725:1802   */\n      0x4e487b7100000000000000000000000000000000000000000000000000000000\n        /* \"#utility.yul\":1722:1723   */\n      0x00\n        /* \"#utility.yul\":1715:1803   */\n      mstore\n        /* \"#utility.yul\":1822:1826   */\n      0x51\n        /* \"#utility.yul\":1819:1820   */\n      0x04\n        /* \"#utility.yul\":1812:1827   */\n      mstore\n        /* \"#utility.yul\":1846:1850   */\n      0x24\n        /* \"#utility.yul\":1843:1844   */\n      0x00\n        /* \"#utility.yul\":1836:1851   */\n      revert\n\n    auxdata: 0xa264697066735822122033461add96188537953e894deef76d3d2e4607b17641b393885bb723825d899b64736f6c634300081a0033\n}\n",
				"bytecode": {
					"linkReferences": {},
					"object": "6080604052348015600e575f80fd5b506103058061001c5f395ff3fe608060405234801561000f575f80fd5b506004361061003f575f3560e01c80630dbe671f146100435780636d4ce63c14610061578063b8e010de1461006b575b5f80fd5b61004b610075565b60405161005891906101f9565b60405180910390f35b61006961007a565b005b6100736100ba565b005b5f5481565b6100b86040518060400160405280601681526020017f696d706c656d656e74206765742066756e6374696f6e000000000000000000008152506100fa565b565b6100f86040518060400160405280601681526020017f696d706c656d656e74207365742066756e6374696f6e000000000000000000008152506100fa565b565b6101908160405160240161010e9190610282565b6040516020818303038152906040527f41304fac000000000000000000000000000000000000000000000000000000007bffffffffffffffffffffffffffffffffffffffffffffffffffffffff19166020820180517bffffffffffffffffffffffffffffffffffffffffffffffffffffffff8381831617835250505050610193565b50565b6101aa816101a26101ad6101cc565b63ffffffff16565b50565b5f6a636f6e736f6c652e6c6f6790505f80835160208501845afa505050565b6101d7819050919050565b6101df6102a2565b565b5f819050919050565b6101f3816101e1565b82525050565b5f60208201905061020c5f8301846101ea565b92915050565b5f81519050919050565b5f82825260208201905092915050565b8281835e5f83830152505050565b5f601f19601f8301169050919050565b5f61025482610212565b61025e818561021c565b935061026e81856020860161022c565b6102778161023a565b840191505092915050565b5f6020820190508181035f83015261029a818461024a565b905092915050565b7f4e487b71000000000000000000000000000000000000000000000000000000005f52605160045260245ffdfea264697066735822122033461add96188537953e894deef76d3d2e4607b17641b393885bb723825d899b64736f6c634300081a0033",
					"opcodes": "PUSH1 0x80 PUSH1 0x40 MSTORE CALLVALUE DUP1 ISZERO PUSH1 0xE JUMPI PUSH0 DUP1 REVERT JUMPDEST POP PUSH2 0x305 DUP1 PUSH2 0x1C PUSH0 CODECOPY PUSH0 RETURN INVALID PUSH1 0x80 PUSH1 0x40 MSTORE CALLVALUE DUP1 ISZERO PUSH2 0xF JUMPI PUSH0 DUP1 REVERT JUMPDEST POP PUSH1 0x4 CALLDATASIZE LT PUSH2 0x3F JUMPI PUSH0 CALLDATALOAD PUSH1 0xE0 SHR DUP1 PUSH4 0xDBE671F EQ PUSH2 0x43 JUMPI DUP1 PUSH4 0x6D4CE63C EQ PUSH2 0x61 JUMPI DUP1 PUSH4 0xB8E010DE EQ PUSH2 0x6B JUMPI JUMPDEST PUSH0 DUP1 REVERT JUMPDEST PUSH2 0x4B PUSH2 0x75 JUMP JUMPDEST PUSH1 0x40 MLOAD PUSH2 0x58 SWAP2 SWAP1 PUSH2 0x1F9 JUMP JUMPDEST PUSH1 0x40 MLOAD DUP1 SWAP2 SUB SWAP1 RETURN JUMPDEST PUSH2 0x69 PUSH2 0x7A JUMP JUMPDEST STOP JUMPDEST PUSH2 0x73 PUSH2 0xBA JUMP JUMPDEST STOP JUMPDEST PUSH0 SLOAD DUP2 JUMP JUMPDEST PUSH2 0xB8 PUSH1 0x40 MLOAD DUP1 PUSH1 0x40 ADD PUSH1 0x40 MSTORE DUP1 PUSH1 0x16 DUP2 MSTORE PUSH1 0x20 ADD PUSH32 0x696D706C656D656E74206765742066756E6374696F6E00000000000000000000 DUP2 MSTORE POP PUSH2 0xFA JUMP JUMPDEST JUMP JUMPDEST PUSH2 0xF8 PUSH1 0x40 MLOAD DUP1 PUSH1 0x40 ADD PUSH1 0x40 MSTORE DUP1 PUSH1 0x16 DUP2 MSTORE PUSH1 0x20 ADD PUSH32 0x696D706C656D656E74207365742066756E6374696F6E00000000000000000000 DUP2 MSTORE POP PUSH2 0xFA JUMP JUMPDEST JUMP JUMPDEST PUSH2 0x190 DUP2 PUSH1 0x40 MLOAD PUSH1 0x24 ADD PUSH2 0x10E SWAP2 SWAP1 PUSH2 0x282 JUMP JUMPDEST PUSH1 0x40 MLOAD PUSH1 0x20 DUP2 DUP4 SUB SUB DUP2 MSTORE SWAP1 PUSH1 0x40 MSTORE PUSH32 0x41304FAC00000000000000000000000000000000000000000000000000000000 PUSH28 0xFFFFFFFFFFFFFFFFFFFFFFFFFFFFFFFFFFFFFFFFFFFFFFFFFFFFFFFF NOT AND PUSH1 0x20 DUP3 ADD DUP1 MLOAD PUSH28 0xFFFFFFFFFFFFFFFFFFFFFFFFFFFFFFFFFFFFFFFFFFFFFFFFFFFFFFFF DUP4 DUP2 DUP4 AND OR DUP4 MSTORE POP POP POP POP PUSH2 0x193 JUMP JUMPDEST POP JUMP JUMPDEST PUSH2 0x1AA DUP2 PUSH2 0x1A2 PUSH2 0x1AD PUSH2 0x1CC JUMP JUMPDEST PUSH4 0xFFFFFFFF AND JUMP JUMPDEST POP JUMP JUMPDEST PUSH0 PUSH11 0x636F6E736F6C652E6C6F67 SWAP1 POP PUSH0 DUP1 DUP4 MLOAD PUSH1 0x20 DUP6 ADD DUP5 GAS STATICCALL POP POP POP JUMP JUMPDEST PUSH2 0x1D7 DUP2 SWAP1 POP SWAP2 SWAP1 POP JUMP JUMPDEST PUSH2 0x1DF PUSH2 0x2A2 JUMP JUMPDEST JUMP JUMPDEST PUSH0 DUP2 SWAP1 POP SWAP2 SWAP1 POP JUMP JUMPDEST PUSH2 0x1F3 DUP2 PUSH2 0x1E1 JUMP JUMPDEST DUP3 MSTORE POP POP JUMP JUMPDEST PUSH0 PUSH1 0x20 DUP3 ADD SWAP1 POP PUSH2 0x20C PUSH0 DUP4 ADD DUP5 PUSH2 0x1EA JUMP JUMPDEST SWAP3 SWAP2 POP POP JUMP JUMPDEST PUSH0 DUP2 MLOAD SWAP1 POP SWAP2 SWAP1 POP JUMP JUMPDEST PUSH0 DUP3 DUP3 MSTORE PUSH1 0x20 DUP3 ADD SWAP1 POP SWAP3 SWAP2 POP POP JUMP JUMPDEST DUP3 DUP2 DUP4 MCOPY PUSH0 DUP4 DUP4 ADD MSTORE POP POP POP JUMP JUMPDEST PUSH0 PUSH1 0x1F NOT PUSH1 0x1F DUP4 ADD AND SWAP1 POP SWAP2 SWAP1 POP JUMP JUMPDEST PUSH0 PUSH2 0x254 DUP3 PUSH2 0x212 JUMP JUMPDEST PUSH2 0x25E DUP2 DUP6 PUSH2 0x21C JUMP JUMPDEST SWAP4 POP PUSH2 0x26E DUP2 DUP6 PUSH1 0x20 DUP7 ADD PUSH2 0x22C JUMP JUMPDEST PUSH2 0x277 DUP2 PUSH2 0x23A JUMP JUMPDEST DUP5 ADD SWAP2 POP POP SWAP3 SWAP2 POP POP JUMP JUMPDEST PUSH0 PUSH1 0x20 DUP3 ADD SWAP1 POP DUP2 DUP2 SUB PUSH0 DUP4 ADD MSTORE PUSH2 0x29A DUP2 DUP5 PUSH2 0x24A JUMP JUMPDEST SWAP1 POP SWAP3 SWAP2 POP POP JUMP JUMPDEST PUSH32 0x4E487B7100000000000000000000000000000000000000000000000000000000 PUSH0 MSTORE PUSH1 0x51 PUSH1 0x4 MSTORE PUSH1 0x24 PUSH0 REVERT INVALID LOG2 PUSH5 0x6970667358 0x22 SLT KECCAK256 CALLER CHAINID BYTE 0xDD SWAP7 XOR DUP6 CALLDATACOPY SWAP6 RETURNDATACOPY DUP10 0x4D 0xEE 0xF7 PUSH14 0x3D2E4607B17641B393885BB72382 TSTORE DUP10 SWAP12 PUSH5 0x736F6C6343 STOP ADDMOD BYTE STOP CALLER "
				},
				"gasEstimates": {
					"creation": {
						"codeDepositCost": "154600",
						"executionCost": "200",
						"totalCost": "154800"
					},
					"external": {
						"a()": "2402",
						"get()": "infinite",
						"set()": "infinite"
					}
				},
				"methodIdentifiers": {
					"a()": "0dbe671f",
					"get()": "6d4ce63c",
					"set()": "b8e010de"
				}
			},
			"storageLayout": {
				"storage": [
					{
						"astId": 4,
						"contract": "contracts/8_HelloAbstractContact.sol:BaseA",
						"label": "a",
						"offset": 0,
						"slot": "0",
						"type": "t_uint256"
					}
				],
				"types": {
					"t_uint256": {
						"encoding": "inplace",
						"label": "uint256",
						"numberOfBytes": "32"
					}
				}
			},
			"userdoc": {
				"kind": "user",
				"methods": {},
				"version": 1
			}
		}
	}
}